:04000000FEEF17F008
:100600000000956A836A9250F00B926E8050F00B56
:10061000806E20EE23F010EE0FF0090EDBCFE3FF2B
:10062000E806FCE2206A010E1F6E226A000E216EAF
:100630001E6A000E1D6E82B020EF03F022EF03F061
:100640004AEF03F01D4A1E2A1EBE30EF03F02D0EA6
:100650001D5C010E1E58D8A030EF03F032EF03F0FE
:100660003AEF03F0226A000E216E206A000E1F6E20
:1006700050EF03F01F502010D8B441EF03F043EFC8
:1006800003F050EF03F0214A222A206A000E1F6E69
:1006900050EF03F0206A010E1F6E1E6A000E1D6EE1
:1006A00021C001F022C002F0030E046EE80E036EBA
:1006B000A7EC03F001500F0FD96EDA6ADF50196E04
:1006C000046A640E036E21C001F022C002F0A7ECA0
:1006D00003F001C009F002C00AF00C6A0A0E0B6EAA
:1006E00007EC04F009500F0FD96EDA6ADF501A6E6A
:1006F000046A0A0E036E21C001F022C002F0A7ECCA
:1007000003F001C009F002C00AF00C6A0A0E0B6E79
:1007100007EC04F009500F0FD96EDA6ADF501B6E38
:1007200021C009F022C00AF00C6A0A0E0B6E07EC19
:1007300004F009500F0FD96EDA6ADF501C6E190EE3
:10074000016E5EEC04F01BEF03F0FEEF17F0066A9B
:1007500004BEAFEF03F0ADEF03F0B5EF03F0036CB1
:10076000041ED8B0042A010E066E02BEBCEF03F0D0
:10077000BAEF03F0C2EF03F0016C021ED8B0022AF8
:10078000010E061A086A000E076E03500410D8B452
:10079000CCEF03F0CEEF03F0F6EF03F0010E056EA1
:1007A000D6EF03F0D89003360436052A04AEDBEF0B
:1007B00003F0DDEF03F0D2EF03F0D89007360836F0
:1007C0000350015C04500258D8A0E9EF03F0EBEFAE
:1007D00003F0F0EF03F00350015E0450025A07806B
:1007E000D89004320332052EDDEF03F00650D8B462
:1007F000FCEF03F0FEEF03F002EF04F0076C081EBD
:10080000D8B0082A07C001F008C002F012000E6A32
:100810000ABE0FEF04F00DEF04F015EF04F0096CC1
:100820000A1ED8B00A2A010E0E6E0CBE1CEF04F090
:100830001AEF04F020EF04F00B6C0C1ED8B00C2A59
:100840000B500C10D8B427EF04F029EF04F04DEF53
:1008500004F0010E0D6E31EF04F0D8900B360C361B
:100860000D2A0CAE36EF04F038EF04F02DEF04F053
:100870000B50095C0C500A58D8A041EF04F043EF2C
:1008800004F047EF04F00B50095E0C500A5AD89060
:100890000C320B320D2E38EF04F00E50D8B453EF5B
:1008A00004F055EF04F059EF04F0096C0A1ED8B0BB
:1008B0000A2A09C009F00AC00AF01200076A000EED
:1008C000066E01500624D96EDA6ADF50836E06C0C8
:1008D00002F0010E036E022A70EF04F0D890033686
:1008E000022E6EEF04F08050F00B0310806E030EAA
:1008F000056EE80E046E0406D8A00506042806E17D
:100900000528D8A486EF04F088EF04F07BEF04F00C
:10091000064A072A07BE96EF04F0075009E1040EC5
:10092000065CD8A096EF04F098EF04F061EF04F0B5
:100930001200580EF66E090EF76E000EF86E00EEFD
:1009400023F010EE0AF00900F5CFEEFFE550E1507C
:10095000FAE1000101EF03F0E721CB6B2D6EEE23EE
:02096000EF6F37
:042FFC0099EF04F055
:00000001FF
