:0400000007EF00F016
:0A000800018201ED03F02FEF03F079
:1006000000000600F2A407EF03F009EF03F022EF69
:1006100003F0080ED624D66E000ED720D76E024AFD
:10062000032A890E021807E1130E0318D8A41BEF42
:1006300003F01DEF03F021EF03F0811E036A000EAB
:10064000026EF29401921100D59AD596D594D59266
:10065000D580D76A060ED66EF294F28A1200036A2B
:10066000026A0190019200013DEF03F0936A816AF2
:1006700024EC03F0F28EF28C120036EC03F03FEF24
:0606800003F007EF00F09B
:020000040020DA
:08000000FFFFFFFFFFFFFFFF00
:020000040030CA
:0E000000FF071F1FFF8285FF0FC00FE00F409C
:00000001FF
