:04000000FEEF17F008
:100600000000936A816A94500F09946E086A000E84
:10061000076E0A6A000E096E000E036E000E046E6D
:10062000000E056E000E066E010E0326000E04225B
:1006300005220622510E031809E1C30E0418051005
:100640000610D8A426EF03F028EF03F014EF03F010
:1006500082B02DEF03F02FEF03F038EF03F0086ABC
:10066000010E076E0A6A000E096E816A67EF03F0D9
:1006700082B23DEF03F03FEF03F047EF03F0086A6B
:10068000020E076E0A6A000E096E35EF03F082B49F
:100690004CEF03F04EEF03F058EF03F0086A030E3F
:1006A000076E0A6A000E096E550E816E67EF03F041
:1006B00082B65DEF03F05FEF03F067EF03F0086AC7
:1006C000040E076E0A6A000E096E0F0E816E070493
:1006D0000810D8A46EEF03F070EF03F0CDEF03F035
:1006E0000ABE7EEF03F00A5007E1080E095CD8B09D
:1006F0007CEF03F07EEF03F082EF03F0D8808136C9
:10070000CBEF03F00ABE90EF03F00A5007E1100EA2
:10071000095CD8B08EEF03F090EF03F095EF03F093
:1007200081508124816ECBEF03F00ABEA3EF03F06A
:100730000A5007E1180E095CD8B0A1EF03F0A3EF4F
:1007400003F0B5EF03F009501708016E010E026EB9
:10075000012AADEF03F0D8900236012EABEF03F083
:1007600002508110816ECBEF03F00ABEC3EF03F09D
:100770000A5007E1200E095CD8B0C1EF03F0C3EFC7
:1007800003F0C9EF03F0D89081308114816ECBEF74
:1007900003F009680A68094A0A2A020E07180810B5
:1007A000D8A4D5EF03F0D7EF03F000EF04F00ABEB2
:1007B000E5EF03F00A5007E1080E095CD8B0E3EF5B
:1007C00003F0E5EF03F0E9EF03F0D8808136FEEFA8
:1007D00003F00ABEF7EF03F00A5007E1100E095CC0
:1007E000D8B0F5EF03F0F7EF03F0FCEF03F0815022
:1007F0008124816EFEEF03F009680A68094A0A2A1B
:10080000030E07180810D8A408EF04F00AEF04F04C
:100810000BEF04F0811E040E07180810D8A413EF84
:1008200004F015EF04F00CEF03F0811E0CEF03F061
:0A083000FEEF17F0000101EF03F0E6
:042FFC001AEF04F0D4
:00000001FF
