:04000000FEEF17F008
:100600000000836A956A9250F00B926E8050F00B56
:10061000806E9450F009946E206A010E1F6E1E6A5F
:10062000000E1D6E20EE25F010EE0FF0090EDBCF50
:10063000E3FFE806FCE2000EABEC04F0216E010ED5
:10064000ABEC04F0226E22500D6E2150236E0DC0D3
:1006500024F082B02EEF03F030EF03F058EF03F0F8
:100660001D4A1E2A1EBE3EEF03F02D0E1D5C010E1C
:100670001E58D8A03EEF03F040EF03F048EF03F020
:10068000246A000E236E206A000E1F6E82EF03F0B4
:100690001F502010D8B44FEF03F051EF03F082EF5A
:1006A00003F0234A242A206A000E1F6E82EF03F013
:1006B00082B25DEF03F05FEF03F07CEF03F023C045
:1006C00021F02450226E21C001F0000E7FEC04F0D6
:1006D00022C001F0010E7FEC04F073EF03F0190E5D
:1006E000016ED9EC03F082A278EF03F07AEF03F009
:1006F0006FEF03F082EF03F0206A010E1F6E1E6A97
:10070000000E1D6E23C001F024C002F0030E046E23
:10071000E80E036E14EC04F001500F0FD96EDA6A84
:10072000DF50196E046A640E036E23C001F024C00A
:1007300002F014EC04F001C008F002C009F00B6AEA
:100740000A0E0A6E4DEC04F008500F0FD96EDA6AEB
:10075000DF501A6E046A0A0E036E23C001F024C033
:1007600002F014EC04F001C008F002C009F00B6ABA
:100770000A0E0A6E4DEC04F008500F0FD96EDA6ABB
:10078000DF501B6E23C008F024C009F00B6A0A0E6C
:100790000A6E4DEC04F008500F0FD96EDA6ADF5084
:1007A0001C6E190E016ED9EC03F029EF03F0FEEF79
:1007B00017F0076A000E066E01500624D96EDA6A39
:1007C000DF50836E06C002F0010E036E022AEBEFCB
:1007D00003F0D8900336022EE9EF03F08050F00BBF
:1007E0000310806E030E056E200E046E0406D8A062
:1007F0000506042806E10528D8A401EF04F003EF5C
:1008000004F0F6EF03F0064A072A07BE11EF04F0E2
:10081000075009E1040E065CD8A011EF04F013EFB5
:1008200004F0DCEF03F01200066A000E056E0350C0
:100830000410D8B41EEF04F020EF04F048EF04F0E9
:10084000010E076E28EF04F0D89003360436072A0D
:1008500004AE2DEF04F02FEF04F024EF04F0D89055
:10086000053606360350015C04500258D8A03BEF11
:1008700004F03DEF04F042EF04F00350015E045039
:10088000025A0580D89004320332072E2FEF04F06D
:1008900005C001F006C002F012000A500B10D8B4D7
:1008A00054EF04F056EF04F07AEF04F0010E0C6EF2
:1008B0005EEF04F0D8900A360B360C2A0BAE63EFCD
:1008C00004F065EF04F05AEF04F00A50085C0B5096
:1008D0000958D8A06EEF04F070EF04F074EF04F044
:1008E0000A50085E0B50095AD8900B320A320C2E6F
:1008F00065EF04F008C008F009C009F01200026EAC
:1009000002C0A9FF01C0A8FFA69EA69CA684F29ED5
:10091000550EA76EAA0EA76EA682F28EA1A893EF1F
:1009200004F095EF04F08EEF04F0A198A694120065
:10093000660EF66E090EF76E000EF86E00EE25F0EC
:1009400010EE0AF00900F5CFEEFFE550E150FAE1B4
:10095000000101EF03F0016E01C0A9FFA69EA69C55
:10096000A680A8501200E721CB6B2D6EEE23EF6F0F
:042FFC0098EF04F056
:00000001FF
