:04000000FEEF3FF0E0
:100600000000066A000E056E936A816A0550016E4D
:100610000650026E054A062A02BE1AEF03F0025087
:1006200007E1080E015CD8B018EF03F01AEF03F0F1
:100630001EEF03F0D880813634EF03F006BE2CEFB6
:1006400003F0065007E1100E055CD8B02AEF03F066
:100650002CEF03F031EF03F081508124816E34EFF1
:1006600003F0066A000E056E270E046E100E036E70
:100670000306D8A00406032806E10428D8A443EF03
:1006800003F045EF03F038EF03F006EF03F0FEEF61
:080690003FF0000101EF03F04F
:047FFC0049EF03F056
:00000001FF
