:04000000FEEF3FF0E0
:100600000000836A956A9250F00B926E8050F00B56
:10061000806E1B6A000E1A6E196A000E186E20EEAC
:100620001CF010EE08F00B0EDBCFE3FFE806FCE257
:100630001A50080FD96EDA6ADF50146E010E1A24B0
:10064000016E000E1B20026E046A0C0E036E77EC26
:1006500003F00150080FD96EDA6ADF50156E020EF2
:100660001A24016E000E1B20026E046A0C0E036E2B
:1006700077EC03F00150080FD96EDA6ADF50166E7E
:10068000030E1A24016E000E1B20026E046A0C0E6B
:10069000036E77EC03F00150080FD96EDA6ADF5071
:1006A000176E140E016ECEEC03F0184A192AC90E0B
:1006B00018181910D8A45FEF03F061EF03F018EFDA
:1006C00003F01A4A1B2A0C0E1A181B10D8A46BEF41
:1006D00003F06DEF03F070EF03F01B6A000E1A6E6B
:1006E000196A000E186E18EF03F0FEEF3FF0066A6D
:1006F00002BE7FEF03F07DEF03F085EF03F0016CA6
:10070000021ED8B0022A010E066E04BE8CEF03F062
:100710008AEF03F090EF03F0036C041ED8B0042AB4
:1007200003500410D8B497EF03F099EF03F0BDEF36
:1007300003F0010E056EA1EF03F0D89003360436E6
:10074000052A04AEA6EF03F0A8EF03F09DEF03F037
:100750000350015C04500258D8A0B1EF03F0B3EF8E
:1007600003F0B7EF03F00350015E0450025AD89033
:1007700004320332052EA8EF03F00650D8B4C3EFBD
:1007800003F0C5EF03F0C9EF03F0016C021ED8B00F
:10079000022A01C001F002C002F01200076A000E36
:1007A000066E01500624D96EDA6ADF50836E06C0E9
:1007B00002F0010E036E022AE0EF03F0D890033638
:1007C000022EDEEF03F08050F00B0310806E030E5C
:1007D000056EE80E046E0406D8A00506042806E19E
:1007E0000528D8A4F6EF03F0F8EF03F0EBEF03F0E1
:1007F000064A072A07BE06EF04F0075009E1040E77
:10080000065CD8A006EF04F008EF04F0D1EF03F087
:100810001200380EF66E080EF76E000EF86E00EE3F
:100820001CF010EE0CF00900F5CFEEFFE550E150A2
:10083000FAE1000101EF03F0E721CB6B2D6EEE230F
:04084000EF6F000056
:047FFC0009EF04F095
:00000001FF
