:04000000FEEF17F008
:1006000000007EEC03F0936A816A010E3AEC03F07D
:10061000066E0E0E0618D8A410EF03F012EF03F0CA
:1006200005EF03F08168C30E036E500E026E0206E2
:10063000D8A00306022806E10328D8A422EF03F07D
:1006400024EF03F017EF03F0816AC30E056E500E1E
:10065000046E0406D8A00506042806E10528D8A4DF
:1006600034EF03F036EF03F029EF03F005EF03F06A
:10067000FEEF17F0016E0104D8A441EF03F043EF41
:1006800003F047EF03F082500F0B71EF03F00150BE
:10069000D8A44DEF03F04FEF03F071EF03F0825059
:1006A0000F0B0F0AD8B457EF03F059EF03F064EFC4
:1006B00003F00704D8A45FEF03F061EF03F064EFE9
:1006C00003F0076A43EF03F082500F0B0F0AD8A420
:1006D0006CEF03F06EEF03F070EF03F0010E076EA6
:1006E0000F0E1200000EF66E300EF76E000EF86E52
:1006F0000900F5CF07F0000101EF03F094500F0956
:04070000946E1200E1
:052FFC0072EF03F0017B
:00000001FF
