:0400000007EF00F016
:0A000800018201ED03F02EEF03F07A
:1006000000000600F2A407EF03F009EF03F022EF69
:1006100003F0080ED624D66E000ED720D76E024AFD
:10062000032A890E021807E1130E0318D8A41BEF42
:1006300003F01DEF03F021EF03F0811E036A000EAB
:10064000026EF29401921100D58CD59AD586D76AA4
:10065000060ED66EF294F28AD58E1200036A026AF2
:100660000190019200013CEF03F0936A816A24EC4F
:1006700003F0F28EF28C120035EC03F03EEF03F043
:0406800007EF00F090
:00000001FF
