:04000000FEEF17F008
:100600000000936A816A046A000E036E026A000E9B
:10061000016E014A022A310E011807E1750E021817
:10062000D8A415EF03F017EF03F009EF03F004BEB1
:1006300025EF03F0045007E1080E035CD8B023EF68
:1006400003F025EF03F029EF03F0D880813674EF33
:1006500003F004BE37EF03F0045007E1100E035C13
:10066000D8B035EF03F037EF03F03CEF03F08150E3
:100670008124816E74EF03F004BE4AEF03F004504E
:1006800007E1180E035CD8B048EF03F04AEF03F01F
:100690005EEF03F0100E03180410D8A452EF03F01D
:1006A00054EF03F056EF03F0800E056E81500510F5
:1006B000816ED8900530056E74EF03F004BE6CEFC8
:1006C00003F0045007E1200E035CD8B06AEF03F09A
:1006D0006CEF03F072EF03F0D89081308114816EDB
:1006E00074EF03F003680468034A042A026A000EE8
:1006F000016E09EF03F0FEEF17F0000EF66E300EFC
:10070000F76E000EF86E0900F5CF05F0000101EF5D
:0207100003F0F4
:052FFC007DEF03F080F1
:00000001FF
