:0400000007EF00F016
:0A000800018284ED03F0A7EF03F07E
:100600000000836A956A9250F00B926E8050F00B56
:10061000806E15C009F016C00AF017C00BF018C0A4
:100620000CF0146A000E136E1350090FD96EDA6ABB
:1006300013500D0FE16EE26ADFCFE7FF134A142A71
:1006400014BE2CEF03F0145009E1050E135CD8A082
:100650002CEF03F02EEF03F014EF03F0C9EC03F0DE
:10066000126A000E116E0D0E026E49EC03F0114A73
:10067000122AF40E115C010E1258D8A042EF03F0BA
:1006800044EF03F033EF03F0030030EF03F007EF24
:1006900000F0086A000E076E02500724D96EDA6A6D
:1006A000DF50836E07C003F0010E046E032A5BEF78
:1006B00003F0D8900436032E59EF03F08050F00B6E
:1006C0000410806E030E066E200E056E0506D8A07F
:1006D0000606052806E10628D8A471EF03F073EF9B
:1006E00003F066EF03F0074A082A08BE81EF03F023
:1006F000085009E1040E075CD8A081EF03F083EFF6
:1007000003F04CEF03F012000600F2A48AEF03F0AE
:100710008CEF03F0A5EF03F0080ED624D66E000E82
:10072000D720D76E194A1A2A890E191807E1130E15
:100730001A18D8A49EEF03F0A0EF03F0A4EF03F083
:10074000811E1A6A000E196EF29401921100A00E19
:10075000F66E070EF76E000EF86E00EE15F010EE56
:1007600004F00900F5CFEEFFE550E150FAE11A6A16
:10077000196A01900192000101EF03F0D59AD59614
:10078000D594D592D580D76A060ED66EF294F28AA9
:100790001200936A816ABEEC03F0F28EF28C1200B2
:0407A00021CB6B2DD1
:00000001FF
