:0400000007EF00F016
:0A000800018201ED03F0A5EF03F003
:1006000000000600F2A407EF03F009EF03F036EF55
:1006100003F0080ED624D66E000ED720D76E164AE9
:10062000172A890E161807E1130E1718D8A41BEF06
:1006300003F01DEF03F035EF03F081A222EF03F08A
:1006400025EF03F0818226EF03F08192176A000EF6
:10065000166E182A1804026E040E026432EF03F0BC
:1006600034EF03F035EF03F0186AF294F2A23BEF97
:1006700003F03DEF03F03FEF03F0F292186A0192AE
:100680001100096A000E086E8050F00B806E035056
:100690000824D96EDA6ADF50836E08C004F0010EB8
:1006A000056E042A56EF03F0D8900536042E54EF59
:1006B00003F08050F00B0510806E076AC80E066EBE
:1006C0000606D8A00706062806E10728D8A46BEF7F
:1006D00003F06DEF03F060EF03F0084A092A09BE4A
:1006E0007BEF03F0095009E1040E085CD8A07BEF12
:1006F00003F07DEF03F044EF03F0120012C00AF0A4
:1007000013C00BF014C00CF015C00DF0BDEC03F0DD
:100710000AC00EF00BC00FF00CC010F00DC011F0AD
:100720000E0E036E41EC03F0040E18649AEF03F012
:100730009CEF03F088EF03F0F29A0300F294F28A40
:10074000186A88EF03F007EF00F0AE0EF66E070EA2
:10075000F76E000EF86E00EE12F010EE04F00900D5
:10076000F5CFEEFFE550E150FAE1186A176A166A14
:100770000190019200017EEF03F0926A956A9392D4
:100780008192C8EC03F0D3EC03F0F28EF28C1200ED
:10079000D59AD596D594D592D580D76A060ED66EC1
:1007A000F294F28A12009380F288F292120021CB26
:0207B0006B2DAF
:00000001FF
