:04000000FEEF17F008
:100600000000956A836A9250F00B926E8050F00B56
:10061000806E9450F009946E20EE27F010EE0FF0EB
:10062000090EDBCFE3FFE806FCE2206A000E1F6E36
:100630001E6A000E1D6E000EC0EC04F00D6E0D5013
:10064000216E226A010EC0EC04F00D6E0D50236E77
:10065000246A23500E6E0D6A21500D10256E225013
:100660000E10266E82B037EF03F039EF03F061EF22
:1006700003F01D4A1E2A1EBE47EF03F02D0E1D5C1F
:10068000010E1E58D8A047EF03F049EF03F051EFD9
:1006900003F0266A000E256E206A000E1F6E94EF8E
:1006A00003F01F502010D8B458EF03F05AEF03F0B6
:1006B00094EF03F0254A262A206A000E1F6E94EF5D
:1006C00003F082B266EF03F068EF03F08EEF03F001
:1006D0002550216E226A25C00DF026C00EF00EC0F6
:1006E0000DF00E6A0D50236E246A21C001F0000E39
:1006F00094EC04F023C001F0010E94EC04F085EFBB
:1007000003F0190E016EEBEC03F082A28AEF03F006
:100710008CEF03F081EF03F094EF03F0206A010EF9
:100720001F6E1E6A000E1D6E25C001F026C002F06D
:10073000030E046EE80E036E29EC04F001500F0F57
:10074000D96EDA6ADF50196E046A640E036E25C032
:1007500001F026C002F029EC04F001C008F002C04C
:1007600009F00B6A0A0E0A6E62EC04F008500F0FD3
:10077000D96EDA6ADF501A6E046A0A0E036E25C05B
:1007800001F026C002F029EC04F001C008F002C01C
:1007900009F00B6A0A0E0A6E62EC04F008500F0FA3
:1007A000D96EDA6ADF501B6E25C008F026C009F04A
:1007B0000B6A0A0E0A6E62EC04F008500F0FD96E35
:1007C000DA6ADF501C6E190E016EEBEC03F032EFAB
:1007D00003F0FEEF17F0076A000E066E8050F00B74
:1007E000806E01500624D96EDA6ADF50836E06C02F
:1007F00002F0010E036E022A00EF04F0D8900336D7
:10080000022EFEEF03F08050F00B0310806E010EFD
:10081000056EF40E046E0406D8A00506042806E151
:100820000528D8A416EF04F018EF04F00BEF04F03D
:10083000064A072A07BE26EF04F0075009E1040E16
:10084000065CD8A026EF04F028EF04F0EEEF03F0EA
:100850001200066A000E056E03500410D8B433EF80
:1008600004F035EF04F05DEF04F0010E076E3DEF8C
:1008700004F0D89003360436072A04AE42EF04F0A1
:1008800044EF04F039EF04F0D890053606360350F3
:10089000015C04500258D8A050EF04F052EF04F06D
:1008A00057EF04F00350015E0450025A0580D890BF
:1008B00004320332072E44EF04F005C001F006C0F5
:1008C00002F012000A500B10D8B469EF04F06BEF7D
:1008D00004F08FEF04F0010E0C6E73EF04F0D8906B
:1008E0000A360B360C2A0BAE78EF04F07AEF04F0E0
:1008F0006FEF04F00A50085C0B500958D8A083EF42
:1009000004F085EF04F089EF04F00A50085E0B5004
:10091000095AD8900B320A320C2E7AEF04F008C034
:1009200008F009C009F01200026E02C0A9FF01C060
:10093000A8FFA69EA69CA684F29E550EA76EAA0EA0
:10094000A76EA682F28EA1A8A8EF04F0AAEF04F089
:10095000A3EF04F0A198A6941200900EF66E090E73
:10096000F76E000EF86E00EE27F010EE0AF00900A8
:10097000F5CFEEFFE550E150FAE1000101EF03F0A1
:10098000016E01C0A9FFA69EA69CA680A8501200D9
:0A099000E721CB6B2D6EEE23EF6F15
:042FFC00ADEF04F041
:00000001FF
