:0400000007EF00F016
:0A000800018201ED03F035EF03F073
:10060000000006009EA007EF03F009EF03F028EFBB
:1006100003F0DE0ECE24CE6E0B0ECF20CF6E024A3C
:10062000032AA10E02180310D8A419EF03F01BEF40
:1006300003F027EF03F081AE20EF03F023EF03F088
:10064000818E24EF03F0819E036A000E026E9E905D
:1006500001921100CD92CD9ACD98CD800B0ECF6E28
:10066000DC0ECE6E9E909D801200036A026A01909D
:100670000192000143EF03F0936A816A2AEC03F0D0
:10068000F28EF28C12003CEC03F045EF03F007EF22
:0206900000F078
:00000001FF
